:0400000032EF00F0EB
:100008005C82FACF02F0FBCF03F00E01BDAB0FEF1D
:1000180000F011EF00F01CEF00F0C5AB16EF00F098
:1000280018EF00F01CEF00F097EC23F02CEF00F035
:10003800BDA921EF00F023EF00F02CEF00F0C5A9D7
:1000480028EF00F02AEF00F02CEF00F0FDEC25F08F
:1000580003C0FBFF02C0FAFF5C921100D0EF24F04E
:1010000000C84C005A4C004A4C00543900E23C00E5
:10101000BC4C00363F002E4D00264D001E4D0016E4
:101020004D000E4D00064D00FE4C00B04C0014412A
:1010300000496E7465726E616C2073656E736F72B9
:101040002074656D706572617475726520696E20BB
:1010500066616872656E686569743A202564200A65
:1010600000496E7465726E616C2073656E736F7289
:101070002074656D706572617475726520696E208B
:1010800063656C736975733A202564200A0045789E
:101090007465726E616C2073656E736F7220746517
:1010A0006D70657261747572653A202566200A005C
:1010B000534E2C456469566C61640A0053532C43AB
:1010C000300A00534F2C310A00522C310A00696E4D
:0B10D00066006E616E00242424000006
:1010DC00000E0001A36F7DC0A4F07EC0A5F07FC000
:1010EC00A6F080C0A7F0A7BF80EF08F07EEF08F055
:1010FC0094EF08F0010EA36FA4C004F0A5C005F096
:10110C00A6C006F0A7C007F07BEC23F004C0A4F047
:10111C0005C0A5F006C0A6F007C0A7F0000E0001A0
:10112C00A96F000EA86FDBC093F0DCC094F0A35144
:10113C00D8B4A3EF08F0A5EF08F0B9EF08F0A3516D
:10114C00D8A4ABEF08F0ADEF08F0B3EF08F0000E49
:10115C00896F2B0E886FB7EF08F0000E896F2D0E7C
:10116C00886F88C0A3F0A4C004F0A5C005F0A6C089
:10117C0006F0A7C007F0E4EC1AF004040510D8A49C
:10118C00CAEF08F0CCEF08F0FFEF08F00001A35114
:10119C00D8B4D3EF08F0D5EF08F0DEEF08F0A3C019
:1011AC002AF19307D8A09407000EA96F010EA86F1F
:1011BC002A0EA825046E010EA921056ECE0E066E10
:1011CC00100E076E3BEC22F00001FD0E9327FF0E74
:1011DC0094237BC016F07CC017F02A0E186E010EFB
:1011EC00196E93C01AF094C01BF017EC20F07DEF31
:1011FC000DF0A4C004F0A5C005F0A6C006F0A7C071
:10120C0007F0E4EC1AF004500510D8A410EF09F024
:10121C0012EF09F045EF09F00001A351D8B419EF12
:10122C0009F01BEF09F024EF09F0A3C02AF1930792
:10123C00D8A09407000EA96F010EA86F2A0EA8253E
:10124C00046E010EA921056ED20E066E100E076EED
:10125C003BEC22F00001FD0E9327FF0E94237BC084
:10126C0016F07CC017F02A0E186E010E196E93C082
:10127C001AF094C01BF017EC20F07DEF0DF0000E6F
:10128C000001AA6F000EAB6F800EAC6F3F0EAD6FFE
:10129C00000E926F000E916FA4C004F0A5C005F073
:1012AC00A6C006F0A7C007F0000E086E000E096E6F
:1012BC00000E0A6E000E0B6EC8EC1DF0D8B069EF74
:1012CC0009F06BEF09F04AEF0AF078EF09F095C0DE
:1012DC00AAF096C0ABF097C0ACF098C0ADF000018E
:1012EC00914B922BAAC022F0ABC023F0ACC024F0DF
:1012FC00ADC025F0000E266E000E276E200E286E57
:10130C00410E296EDEEC0FF022C095F023C096F052
:10131C0024C097F025C098F000019551A45D046E8F
:10132C009651A559056E9751A659066E9851A75915
:10133C00076EC0EC20F007BEAFEF09F007500610A7
:10134C00051009E1020E045CD8A0AFEF09F0B1EF73
:10135C0009F06DEF09F095C03BF096C03CF097C0DA
:10136C003DF098C03EF0A4C03FF0A5C040F0A6C030
:10137C0041F0A7C042F062EC1AF0D8A0C8EF09F017
:10138C00CAEF09F06DEF09F00001AA51A45D046EDB
:10139C00AB51A559056EAC51A659066EAD51A75966
:1013AC00076EC0EC20F007BEE9EF09F007500610FD
:1013BC00051007E1020E045CD8B0E7EF09F0E9EF85
:1013CC0009F031EF0AF0AAC0A4F0ABC0A5F0ACC094
:1013DC00A6F0ADC0A7F04AEF0AF0AAC043F0ABC02C
:1013EC0044F0ACC045F0ADC046F0000E476E000EA8
:1013FC00486E200E496E410E4A6EF3EC11F043C05C
:10140C00AAF044C0ABF045C0ACF046C0ADF0000152
:10141C009107D8A09207AA51A45D046EAB51A559AF
:10142C00056EAC51A659066EAD51A759076EC0ECAE
:10143C0020F007BE2FEF0AF007500610051007E149
:10144C00020E045CD8B02DEF0AF02FEF0AF031EF4A
:10145C000AF0E9EF09F0A4C03BF0A5C03CF0A6C02F
:10146C003DF0A7C03EF0AAC03FF0ABC040F0ACC00E
:10147C0041F0ADC042F062EC1AF0D8A048EF0AF08F
:10148C004AEF0AF0F3EF09F081C08BF08BC08CF0BF
:10149C005ABE53EF0AF055EF0AF05BEF0AF059C051
:1014AC0084F05AC085F060EF0AF0000E0001856FE1
:1014BC00060E846F84C08FF085C090F000018F4BB6
:1014CC00902B660E8C19D8A46EEF0AF070EF0AF010
:1014DC0090EF0AF092BF77EF0AF075EF0AF083EF06
:1014EC000AF0000EAA6F000EAB6F800EAC6F3F0EB1
:1014FC00AD6F000E926F000E916F670E8B19D8B402
:10150C008AEF0AF08CEF0AF090EF0AF091518F27D6
:10151C0092519023000E9A6F000E996FA4C09BF00D
:10152C00A5C09CF0A6C09DF0A7C09EF0AAC095F0E7
:10153C00ABC096F0ACC097F0ADC098F021EF0BF0BB
:10154C009BC043F09CC044F09DC045F09EC046F04B
:10155C00AAC047F0ABC048F0ACC049F0ADC04AF0EF
:10156C00F3EC11F043C06DF044C06EF045C06FF069
:10157C0046C070F088EC16F06DC09FF06EC0A0F005
:10158C006FC0A1F070C0A2F09FC06DF0A0C06EF053
:10159C00A1C06FF0A2C070F0DEEC19F06DC08DF040
:1015AC006EC08EF09BC03BF09CC03CF09DC03DF0EB
:1015BC009EC03EF09FC026F0A0C027F0A1C028F02E
:1015CC00A2C029F0AAC022F0ABC023F0ACC024F01A
:1015DC00ADC025F0DEEC0FF022C03FF023C040F090
:1015EC0024C041F025C042F018EC22F03BC09BF027
:1015FC003CC09CF03DC09DF03EC09EF0AAC043F0A4
:10160C00ABC044F0ACC045F0ADC046F0000E476E28
:10161C00000E486E200E496E410E4A6EF3EC11F02E
:10162C0043C0AAF044C0ABF045C0ACF046C0ADF02E
:10163C000001994B9A2B8F51995D9A51800A556EE6
:10164C009051800A5558D8A02EEF0BF030EF0BF0CC
:10165C00A6EF0AF0AAC022F0ABC023F0ACC024F075
:10166C00ADC025F0000E266E000E276EA00E286E63
:10167C00400E296EDEEC0FF022C09FF023C0A0F0CC
:10168C0024C0A1F025C0A2F09BC03BF09CC03CF054
:10169C009DC03DF09EC03EF09FC03FF0A0C040F00A
:1016AC00A1C041F0A2C042F062EC1AF0D8B061EFD8
:1016BC000BF063EF0BF06EEF0BF0000E00019F6F61
:1016CC00000EA06F000EA16F000EA26F97EF0BF033
:1016DC009BC004F09CC005F09DC006F09EC007F0B6
:1016EC009FC008F0A0C009F0A1C00AF0A2C00BF086
:1016FC00C8EC1DF0D8A085EF0BF087EF0BF097EF3F
:10170C000BF000018DB18DEF0BF08FEF0BF097EF1D
:10171C000BF0000E9F6F000EA06F000EA16F000E5D
:10172C00A26FA4C012F0A5C013F0A6C014F0A7C0FD
:10173C0015F09FC016F0A0C017F0A1C018F0A2C001
:10174C0019F07EEC0DF012C09BF013C09CF014C08D
:10175C009DF015C09EF09BC03BF09CC03CF09DC022
:10176C003DF09EC03EF0000E266E000E276E200E41
:10177C00286E410E296E95C022F096C023F097C0BA
:10178C0024F098C025F0DEEC0FF022C03FF023C00F
:10179C0040F024C041F025C042F062EC1AF0D8A011
:1017AC00DAEF0BF0DCEF0BF005EF0CF00001914BD6
:1017BC00922B95C022F096C023F097C024F098C0CD
:1017CC0025F0000E266E000E276E200E286E410EA0
:1017DC00296EDEEC0FF022C095F023C096F024C0E9
:1017EC0097F025C098F0660E00018C19D8A401EF73
:1017FC000CF003EF0CF005EF0CF08F4B902B95C019
:10180C00AAF096C0ABF097C0ACF098C0ADF091C008
:10181C0082F092C083F0000E00018A6F000E876F79
:10182C00000E866F000E9A6F000E996F03EF0DF08D
:10183C009BC043F09CC044F09DC045F09EC046F058
:10184C00AAC047F0ABC048F0ACC049F0ADC04AF0FC
:10185C00F3EC11F043C06DF044C06EF045C06FF076
:10186C0046C070F088EC16F06DC09FF06EC0A0F012
:10187C006FC0A1F070C0A2F09FC06DF0A0C06EF060
:10188C00A1C06FF0A2C070F0DEEC19F000016EBFC9
:10189C005BEF0CF06E5107E10A0E6D5DD8B059EF9D
:1018AC000CF05BEF0CF06BEF0CF09FC06DF0A0C078
:1018BC006EF0A1C06FF0A2C070F0DEEC19F06DC03C
:1018CC008DF06EC08EF06FEF0CF0000E8E6F090E67
:1018DC008D6F00018A51D8A476EF0CF078EF0CF0E4
:1018EC00A0EF0CF083BF7FEF0CF07DEF0CF0A0EFBE
:1018FC000CF02A0EA825D96E010EA921DA6E2E0E37
:10190C00DF6EA84BA92B9307D8A09407010E8A6F02
:10191C00A0EF0CF02A0EA825D96E010EA921DA6EC3
:10192C00300EDF6EA84BA92B9307D8A0940786071F
:10193C00D8A0870786518711D8A4A7EF0CF0A9EF80
:10194C000CF090EF0CF02A0EA825D96E010EA921EF
:10195C00DA6E8D51300FDF6EA84BA92B9307D8A0F0
:10196C0094079BC03BF09CC03CF09DC03DF09EC0DA
:10197C003EF09FC026F0A0C027F0A1C028F0A2C066
:10198C0029F0AAC022F0ABC023F0ACC024F0ADC04B
:10199C0025F0DEEC0FF022C03FF023C040F024C055
:1019AC0041F025C042F018EC22F03BC09BF03CC04B
:1019BC009CF03DC09DF03EC09EF0AAC043F0ABC071
:1019CC0044F0ACC045F0ADC046F0000E476E000EC2
:1019DC00486E200E496E410E4A6EF3EC11F043C076
:1019EC00AAF044C0ABF045C0ACF046C0ADF000016D
:1019FC008207D8A08307994B9A2B8F51995D9A51E6
:101A0C00800A556E9051800A5558D8B010EF0DF0E1
:101A1C0012EF0DF020EF0DF0A9BF1EEF0DF0A95144
:101A2C0009E14B0EA85DD8A01EEF0DF020EF0DF0D4
:101A3C001EEF0CF0000E9A6F4F0E996F2A0E99251F
:101A4C00D96E010E9A21DA6EDF6A2A0E556E010EDE
:101A5C00566EA851555EA951565A99515524046E8B
:101A6C009A515620056E2A0E066E010E076EA8C0FE
:101A7C0008F0A9C009F07FEC21F00001A851995D94
:101A8C00A86FA9519A59A96FA351D8A450EF0DF082
:101A9C0053EF0DF0010E54EF0DF0000E996F9A6B91
:101AAC00A351D8B45CEF0DF05EEF0DF069EF0DF0C3
:101ABC00A807D8A0A9072A0EA825D96E010EA9211E
:101ACC00DA6EA3C0DFFF9951935F9A51945B7BC090
:101ADC0016F07CC017F02A0EA825186E010EA9214D
:101AEC00196E93C01AF094C01BF017EC20F0120082
:101AFC001550800B1E6E15501524206E14AE89EFF8
:101B0C000DF08BEF0DF08CEF0DF020802050D8B441
:101B1C0092EF0DF094EF0DF0A9EF0DF02028D8A462
:101B2C009AEF0DF09CEF0DF0A4EF0DF0000E126E7D
:101B3C00000E136E000E146E000E156E148E000E39
:101B4C00156EB1EF0DF0000E126E000E136E000E3E
:101B5C00146E000E156E1950800B1F6E1E501F1840
:101B6C00D8B4BBEF0DF0BDEF0DF0BEEF0DF01E8C39
:101B7C00195019241F6E18AEC6EF0DF0C8EF0DF0FA
:101B8C00C9EF0DF01F801F50D8B4CFEF0DF0D1EF7F
:101B9C000DF0E6EF0DF01F28D8A4D7EF0DF0D9EF1C
:101BAC000DF0E1EF0DF0000E166E000E176E000E2C
:101BBC00186E000E196E188E000E196EEEEF0DF0E9
:101BCC00000E166E000E176E000E186E000E196EBB
:101BDC0020501F5CD8B0F5EF0DF0F7EF0DF01EEFB5
:101BEC000EF01EACFCEF0DF0FEEF0DF000EF0EF062
:101BFC00800E1E1A20C021F01FC020F021C01FF043
:101C0C0012C021F016C012F021C016F013C021F042
:101C1C0017C013F021C017F014C021F018C014F035
:101C2C0021C018F015C021F019C015F021C019F011
:101C3C00000E216E20501FC01AF01B6A1A5E000E97
:101C4C001B5A1BBE33EF0EF01B5009E11A0E1A5C27
:101C5C00D8A033EF0EF035EF0EF06CEF0EF0125003
:101C6C00131014101510D8A43EEF0EF041EF0EF027
:101C7C00010E42EF0EF0000E216E000E126E000EE1
:101C8C00136E000E146E000E156E1FC020F075EF53
:101C9C000EF021A054EF0EF056EF0EF05CEF0EF0AC
:101CAC00D89021300109216E5EEF0EF0D8902132D0
:101CBC0012A063EF0EF065EF0EF066EF0EF0218EC2
:101CCC0015341532143213321232202A1F50205C74
:101CDC00D8A073EF0EF075EF0EF04FEF0EF01EBCA8
:101CEC007AEF0EF07CEF0EF0BCEF0EF02050D8A483
:101CFC0082EF0EF084EF0EF08EEF0EF0000E126EEF
:101D0C00000E136E000E146E000E156EDDEF0FF04C
:101D1C00165012261750132218501422195015223F
:101D2C0015A09BEF0EF09DEF0EF049EF0FF021A0E8
:101D3C00A2EF0EF0A4EF0EF0AAEF0EF0D890213027
:101D4C000109216EACEF0EF0D890213212A0B1EF48
:101D5C000EF0B3EF0EF0B4EF0EF0218E15341532F9
:101D6C00143213321232202A49EF0FF01650125C43
:101D7C0017501358185014581550800A1A6E1950D1
:101D8C00800A1A58D8B0CDEF0EF0CFEF0EF0FAEF64
:101D9C000EF01250165C1A6E135017581B6E14501E
:101DAC0018581C6E155019581D6EFF0E1A24126E01
:101DBC00FF0E1B20136EFF0E1C20146EFF0E1D2039
:101DCC00156E800E1E1A216C2150D8A4F0EF0EF067
:101DDC00F2EF0EF002EF0FF0010E1226000E13229E
:101DEC001422152202EF0FF01650125E1750135AE0
:101DFC001850145A1950155A12501310141015105B
:101E0C00D8A40BEF0FF00DEF0FF042EF0FF02150B5
:101E1C00D8A413EF0FF015EF0FF042EF0FF0000EF8
:101E2C00126E000E136E000E146E000E156EDDEFAA
:101E3C000FF0D890123613361436153621AE29EF22
:101E4C000FF02BEF0FF02CEF0FF0128021A031EFE1
:101E5C000FF033EF0FF037EF0FF0D880213639EF5A
:101E6C000FF0D89021362050D8B43FEF0FF041EF4F
:101E7C000FF042EF0FF0200614AE47EF0FF049EFD2
:101E8C000FF01FEF0FF0000E1F6E21AE50EF0FF092
:101E9C0052EF0FF06AEF0FF021C01AF07F0E1A16F6
:101EAC00D8B45BEF0FF05DEF0FF061EF0FF0010EA8
:101EBC001F6E6AEF0FF012A066EF0FF068EF0FF0D5
:101ECC006AEF0FF05DEF0FF01F50D8B470EF0FF00A
:101EDC0072EF0FF09DEF0FF0010E1226000E132281
:101EEC001422152215A07DEF0FF07FEF0FF09DEF60
:101EFC000FF012C01AF013C01BF014C01CF015C068
:101F0C001DF01D341D321C321B321A321AC012F055
:101F1C001BC013F01CC014F01DC015F02028D8B441
:101F2C009AEF0FF09CEF0FF09DEF0FF0202A202876
:101F3C00D8B4A3EF0FF0A5EF0FF0ADEF0FF02050DA
:101F4C00D8A4ABEF0FF0ADEF0FF0BFEF0FF0000E1A
:101F5C00126E000E136E000E146E000E156E2050D5
:101F6C00D8A4BBEF0FF0BDEF0FF0BFEF0FF0000EDA
:101F7C001E6E20A0C4EF0FF0C6EF0FF0C9EF0FF0EC
:101F8C00148ECAEF0FF0149ED8902030156E1EAE32
:101F9C00D2EF0FF0D4EF0FF0D5EF0FF0158E12C07B
:101FAC0012F013C013F014C014F015C015F0120089
:101FBC002550800B2E6E25502524346E24AEE9EF6F
:101FCC000FF0EBEF0FF0ECEF0FF034803450D8B48F
:101FDC00F2EF0FF0F4EF0FF007EF10F03428D8A465
:101FEC00FAEF0FF0FCEF0FF004EF10F0000E226E82
:101FFC00000E236E000E246E000E256E248E0FEF45
:10200C0010F0000E226E000E236E000E246E000ED9
:10201C00256E2950800B2E1A295029242F6E28AE9C
:10202C001AEF10F01CEF10F01DEF10F02F802F5056
:10203C00D8B423EF10F025EF10F038EF10F02F2864
:10204C00D8A42BEF10F02DEF10F035EF10F0000EA0
:10205C00266E000E276E000E286E000E296E288E3E
:10206C0040EF10F0000E266E000E276E000E286E4C
:10207C00000E296E2F50D8B446EF10F048EF10F038
:10208C0050EF10F03450D8A44EEF10F050EF10F089
:10209C005AEF10F0000E226E000E236E000E246E0E
:1020AC00000E256EF2EF11F028502202F3CF39F01A
:1020BC00F4CF3AF03950306E316A326A336A3A50A2
:1020CC00356E366A376A386A27502302F3CF39F0F7
:1020DC00F4CF3AF039503026000E3122322233221E
:1020EC003A503526000E362237223822265024024A
:1020FC00F3CF39F0F4CF3AF039503026000E3122BC
:10210C00322233223A503526000E3622372238221C
:10211C0032C033F031C032F030C031F0306A26506A
:10212C002302F3CF39F0F4CF3AF0395030263A503D
:10213C003122000E3222000E332227502202F3CF1E
:10214C0039F0F4CF3AF0395030263A503122000EA3
:10215C003222000E332232C033F031C032F030C0A4
:10216C0031F0306A26502202F3CF39F0F4CF3AF036
:10217C00395030263A503122000E3222000E3322D2
:10218C0028502302F3CF39F0F4CF3AF039503526EA
:10219C003A503622000E3722000E382227502402E5
:1021AC00F3CF39F0F4CF3AF0395035263A50362285
:1021BC00000E3722000E382228502402F3CF39F0BB
:1021CC00F4CF3AF039502A6E3A502B6E2C6A2D6AA5
:1021DC002CC02DF02BC02CF02AC02BF02A6A2A50D0
:1021EC0035262B5036222C5037222D50382230C019
:1021FC002AF031C02BF032C02CF033C02DF0190E68
:10220C000DEF11F0D8902D322C322B322A32E82ED1
:10221C0008EF11F02A5035262B5036222C5037223D
:10222C002D50382232C033F031C032F030C031F092
:10223C00306A2F5034C02AF02B6A2A26000E2B222B
:10224C00820E2A24396EFF0E2B203A6E43EF11F0CA
:10225C00D890353636363736383633AE38EF11F04F
:10226C003AEF11F03BEF11F03580D8903036313623
:10227C00323633363906D8A03A0637AE48EF11F06D
:10228C004AEF11F02EEF11F0000E2F6E33AE51EF1E
:10229C0011F053EF11F077EF11F0FF0E30142A6E9E
:1022AC00FF0E31142B6EFF0E32142C6E7F0E331476
:1022BC002D6E2A502B102C102D10D8B468EF11F065
:1022CC006AEF11F06EEF11F0010E2F6E77EF11F037
:1022DC0035A073EF11F075EF11F077EF11F06AEF95
:1022EC0011F02F50D8B47DEF11F07FEF11F0A3EF68
:1022FC0011F0010E3526000E36223722382238A076
:10230C008AEF11F08CEF11F0A3EF11F035C02AF029
:10231C0036C02BF037C02CF038C02DF02D342D32B8
:10232C002C322B322A322AC035F02BC036F02CC07E
:10233C0037F02DC038F0394A3A2A3ABEAEEF11F0D8
:10234C003A5008E13928D8A0AEEF11F0B0EF11F0F7
:10235C00BAEF11F0000E356E000E366E800E376E31
:10236C007F0E386EE8EF11F03ABEC7EF11F03A501D
:10237C0006E13904D8B0C5EF11F0C7EF11F0D3EF77
:10238C0011F0000E356E000E366E000E376E000E1C
:10239C00386E000E2E6EE8EF11F039C034F0FF0EDF
:1023AC003516FF0E36167F0E3716000E381634A073
:1023BC00E2EF11F0E4EF11F0E5EF11F0378ED89069
:1023CC003430386E2E50381235C022F036C023F01F
:1023DC0037C024F038C025F012004650800B0001A5
:1023EC00646F465046246B6F45AEFFEF11F001EF62
:1023FC0012F002EF12F06B816B51D8B408EF12F0AF
:10240C000AEF12F01FEF12F06B29D8A410EF12F0A4
:10241C0012EF12F01AEF12F0000E436E000E446E23
:10242C00000E456E000E466E458E000E466E27EF72
:10243C0012F0000E436E000E446E000E456E000E40
:10244C00466E4A50800B641B4A504A246C6F49AE4E
:10245C0032EF12F034EF12F035EF12F06C816C5158
:10246C00D8B43BEF12F03DEF12F052EF12F06C29A2
:10247C00D8A443EF12F045EF12F04DEF12F0000E1E
:10248C00476E000E486E000E496E000E4A6E498E65
:10249C00000E4A6E5AEF12F0000E476E000E486E98
:1024AC00000E496E000E4A6E4750481049104A10F3
:1024BC00D8A463EF12F065EF12F07DEF12F0000E6E
:1024CC00436E000E446E000E456E000E466E800E7E
:1024DC0045127F0E46126451461243C043F044C06D
:1024EC0044F045C045F046C046F0C0EF13F06B51C8
:1024FC00D8A483EF12F085EF12F08FEF12F0000EDC
:10250C00436E000E446E000E456E000E466EC0EF1C
:10251C0013F06C516BC04BF04C6A4B5E000E4C5A76
:10252C007F0E4B24656F000E4C20666F43C060F02D
:10253C0044C061F045C062F046C063F0000E436ECB
:10254C00000E446E000E456E000E466E000E676F58
:10255C00000E686F000E696F000E6A6F000E6C6FD4
:10256C00F0EF12F06C51D8B4BEEF12F0C0EF12F0D5
:10257C00D7EF12F0D8906037613762376337D89055
:10258C0043364436453646366AAFCFEF12F0D1EFBC
:10259C0012F0D2EF12F04380D89067376837693762
:1025AC006A374750605D48506159495062594A50EA
:1025BC006359D8A0E4EF12F0E6EF12F0EFEF12F04F
:1025CC006A8D4750605F4850615B4950625B4A506E
:1025DC00635B6C2B190E6C65F6EF12F0F8EF12F0D2
:1025EC00B8EF12F06051611162116311D8B401EFB0
:1025FC0013F003EF13F01BEF13F067811BEF13F0D5
:10260C00D89043364436453646366AAF10EF13F051
:10261C0012EF13F013EF13F04380D890673768373D
:10262C0069376A376507D8A0660745AE20EF13F007
:10263C0022EF13F006EF13F0000E6C6F6AAF29EF68
:10264C0013F02BEF13F04FEF13F0FF0E67154B6EDB
:10265C00FF0E68154C6EFF0E69154D6E7F0E6A15D8
:10266C004E6E4B504C104D104E10D8B440EF13F032
:10267C0042EF13F046EF13F0010E6C6F4FEF13F0B7
:10268C0043A04BEF13F04DEF13F04FEF13F042EF6D
:10269C0013F06C51D8B455EF13F057EF13F07BEFE8
:1026AC0013F0010E4326000E44224522462246A07A
:1026BC0062EF13F064EF13F07BEF13F043C04BF0B9
:1026CC0044C04CF045C04DF046C04EF04E344E3236
:1026DC004D324C324B324BC043F04CC044F04DC0E9
:1026EC0045F04EC046F0654B662B66BF86EF13F087
:1026FC00665108E16529D8A086EF13F088EF13F036
:10270C0093EF13F0000E666F6569000E436E000EBA
:10271C00446E000E456E000E466E66BFA0EF13F0C1
:10272C00665106E16505D8B09EEF13F0A0EF13F0EB
:10273C00AEEF13F0000E666F000E656F000E436E69
:10274C00000E446E000E456E000E466E000E646F59
:10275C0065C06BF06BA1B5EF13F0B7EF13F0BAEFE8
:10276C0013F0458EBBEF13F0459ED8906B31466E3F
:10277C0071EF12F01200B0C0D9FFB1C0DAFFDECF9A
:10278C00F6FFDDCFF7FF000EF86E0800F550250AB6
:10279C00D8A4D3EF13F0D5EF13F018EF15F0B0C0A9
:1027AC00D9FFB1C0DAFFDE2A000EDD22000E0001D7
:1027BC00DC6F000EDB6FDBC0E7F059685A68B0C005
:1027CC00D9FFB1C0DAFFDECFB9F0DDCFBAF0B9C0B6
:1027DC00F6FFBAC0F7FF000EF86E0800F550640A59
:1027EC00D8B4FBEF13F0FDEF13F00DEF14F0B9C0FC
:1027FC00F6FFBAC0F7FF000EF86E0800F550690A34
:10280C00D8A40BEF14F00DEF14F03BEF14F0B2C0A2
:10281C00D9FFB3C0DAFFDFCF57F0020EDE26DFCFD1
:10282C0058F0000EDD2257C0D9FF58C0DAFFDECFBA
:10283C00B4F0DDCFB5F0010EB925576E000EBA21FC
:10284C00586EB0C0D9FFB1C0DAFF57C0DEFF58C018
:10285C00DDFFAEC021F0AFC022F0B4C023F0B5C094
:10286C0024F06DEC18F02EEF15F0B0C0D9FFB1C00C
:10287C00DAFFDECFB9F0DDCFBAF0B9C0F6FFBAC0DF
:10288C00F7FF000EF86E0800F5CFB8F05AEF14F011
:10289C00B94BBA2B73EF14F06C0EB86F73EF14F0D6
:1028AC00000EB86F73EF14F0B851576E586A585049
:1028BC00000AD8B464EF14F056EF14F057504C0AD9
:1028CC00D8B44EEF14F02A0AD8B452EF14F00A0A16
:1028DC00D8B44EEF14F056EF14F0B9C0F6FFBAC0EE
:1028EC00F7FF000EF86E0800F550660AD8A481EFC9
:1028FC0014F083EF14F00FEF15F0B9EF14F0B2C031
:10290C00D9FFB3C0DAFFDFCF57F0040EDE26DFCFDE
:10291C0058F0000EDD2257C0D9FF58C0DAFFDECFC9
:10292C00B4F0DECFB5F0DECFB6F0DECFB7F0CEEF41
:10293C0014F0B2C0D9FFB3C0DAFFDFCF57F0040EEA
:10294C00DE26DFCF58F0000EDD2257C0D9FF58C06D
:10295C00DAFFDECFB4F0DECFB5F0DECFB6F0DECFEF
:10296C00B7F0CEEF14F0B851576E586A5850000AB1
:10297C00D8B4C3EF14F0CEEF14F057504C0AD8B4BF
:10298C009FEF14F0200AD8B485EF14F0CEEF14F0BA
:10299C00010EB925576E000EBA21586EB0C0D9FF82
:1029AC00B1C0DAFF57C0DEFF58C0DDFFF7EF14F0FF
:1029BC00AEC07BF0AFC07CF0B4C07DF0B5C07EF093
:1029CC00B6C07FF0B7C080F0B9C0F6FFBAC0F7FF51
:1029DC00000EF86E0800F5CF81F06EEC08F02EEFCB
:1029EC0015F0B9C0F6FFBAC0F7FF000EF86E08007C
:1029FC00F550576E586A5850000AD8B408EF15F0C5
:102A0C000FEF15F05750660AD8B4DEEF14F00FEF45
:102A1C0015F0B0C0D9FFB1C0DAFFDE2A000EDD22FE
:102A2C002EEF15F0B0C0D9FFB1C0DAFFDECFF6FF44
:102A3C00DDCFF7FF000EF86E0800F550066E076A42
:102A4C00AEC008F0AFC009F045EC1CF00FEF15F06C
:102A5C00120073EC26F0100E0001CE6F390ECD6F04
:102A6C000D0EE82EFED7CD2FFCD7CE2FFAD700D0E7
:102A7C003D0ECDEC23F004C0E1F005C0E2F0DA0E1F
:102A8C00476E030E486E2D0E496E400E4A6E330E85
:102A9C00266E330E276E530E286E400E296E000ED6
:102AAC000001CD6F040ECE6FE151CD5FE251CE5BD4
:102ABC00CDC004F0CEC005F0066A076A000E93EC98
:102ACC0017F004C022F005C023F006C024F007C0A4
:102ADC0025F0DEEC0FF022C03FF023C040F024C004
:102AEC0041F025C042F0E50E3B6E2F0E3C6E9B0E66
:102AFC003D6E440E3E6E18EC22F03BC043F03CC0E1
:102B0C0044F03DC045F03EC046F0F3EC11F043C03C
:102B1C006DF044C06EF045C06FF046C070F0DEEC56
:102B2C0019F06DC0DFF06EC0E0F0DA0E476E030EE8
:102B3C00486E2D0E496E400E4A6E330E266E330EC5
:102B4C00276E530E286E400E296E000E0001CD6FBD
:102B5C00040ECE6FE151CD5FE251CE5BCDC004F0DF
:102B6C00CEC005F0066A076A000E93EC17F004C09D
:102B7C0022F005C023F006C024F007C025F0DEECDF
:102B8C000FF022C03FF023C040F024C041F025C01C
:102B9C0042F0E50E3B6E2F0E3C6E9B0E3D6E440ECE
:102BAC003E6E18EC22F03BC043F03CC044F03DC0FC
:102BBC0045F03EC046F0F3EC11F043C0CFF044C0FA
:102BCC00D0F045C0D1F046C0D2F0000E166E000E0B
:102BDC00176E000E186E420E196E660E266E660E7D
:102BEC00276EE60E286E3F0E296ECFC022F0D0C0A5
:102BFC0023F0D1C024F0D2C025F0DEEC0FF022C0BF
:102C0C0012F023C013F024C014F025C015F07EEC94
:102C1C000DF012C06DF013C06EF014C06FF015C043
:102C2C0070F0DEEC19F06DC0DDF06EC0DEF0100E51
:102C3C000001CE6F390ECD6F0D0EE82EFED7CD2FC5
:102C4C00FCD7CE2FFAD700D095EC25F0CBC01FF0D7
:102C5C00CCC020F032EC25F0CBC01FF0CCC020F063
:102C6C00DAEC1FF0030E0001CE6F0E0ECD6FF50ED9
:102C7C00E82EFED7CD2FFCD7CE2FFAD700D0CBC065
:102C8C006DF0CCC06EF0EC0E00016F6F000E706F2B
:102C9C00E80E716F000E726F37EC19F0310E0001F7
:102CAC00C36F100EC46FDDC0C5F0DEC0C6F0E4EC1F
:102CBC0024F0610E0001C36F100EC46FDFC0C5F0AD
:102CCC00E0C0C6F0E4EC24F08E0E0001C36F100ED1
:102CDC00C46FE8C0C5F0E9C0C6F0EAC0C7F0EBC0ED
:102CEC00C8F0E4EC24F0CBC01FF0CCC020F020ECFA
:102CFC0025F087EC25F0CBC01FF0CCC020F05FECAA
:102D0C0023F01200D3C077F0D4C078F0D5C079F09E
:102D1C00D6C07AF06DC077F06EC078F06FC079F0E5
:102D2C0070C07AF0810E4F6EFF0E506E77C051F06E
:102D3C0078C052F079C053F07AC054F0180EACEF52
:102D4C0016F0D8905432533252325132E82EA7EF4B
:102D5C0016F051504F240001756F000E5020766F05
:102D6C0076BFC2EF16F0765109E1170E755DD8A04B
:102D7C00C2EF16F0C4EF16F0CEEF16F06DC06DF08A
:102D8C006EC06EF06FC06FF070C070F092EF17F005
:102D9C0076BFD3EF16F0D5EF16F046EF17F075C0EF
:102DAC004FF0FF0E506EFF0E516E7F0E526E000EE6
:102DBC00536E4F66E4EF16F0ECEF16F053345332CB
:102DCC005232513250324F2EDFEF16F050C071F0AC
:102DDC0051C072F052C073F053C074F000017151C5
:102DEC0077154F6E72517815506E73517915516E6F
:102DFC0074517A15526E4F50501051105210D8A475
:102E0C000AEF17F00CEF17F00EEF17F0C4EF16F0F7
:102E1C0077C04FF078C050F079C051F07AC052F0C2
:102E2C00200E1EEF17F0D8905232513250324F32E2
:102E3C00E82E19EF17F04F50501051105210D8B413
:102E4C002AEF17F02CEF17F034EF17F071517727AA
:102E5C00725178237351792374517A23711D4F6EFB
:102E6C00721D506E731D516E741D526E4F5077173C
:102E7C00505078175150791752507A178AEF17F033
:102E8C0077C04FF078C050F079C051F07AC052F052
:102E9C00200E56EF17F0D8905232513250324F323A
:102EAC00E82E51EF17F04F50501051105210D8A47B
:102EBC0062EF17F064EF17F06EEF17F0000E776FFC
:102ECC00000E786F000E796F000E7A6F8AEF17F094
:102EDC00D89077354F6E7835506E7935516E7A358E
:102EEC00526E4F50501051105210D8B480EF17F052
:102EFC0082EF17F08AEF17F0000E776F000E786FE5
:102F0C00800E796FBF0E7A6F77C06DF078C06EF05F
:102F1C0079C06FF07AC070F012000C6E0C50D8B4FF
:102F2C009AEF17F09CEF17F0BEEF17F007BEA3EF68
:102F3C0017F0A1EF17F0BEEF17F004C008F005C0B2
:102F4C0009F006C00AF007C00BF0081E091E0A1E85
:102F5C000B1E082A000E09220A220B2208C00EF0B2
:102F6C0009C00FF00AC010F00BC011F0C6EF17F03B
:102F7C0004C00EF005C00FF006C010F007C011F031
:102F8C000450051006100710D8A4CFEF17F0D1EF9E
:102F9C0017F0DBEF17F0000E046E000E056E000E3E
:102FAC00066E000E076E6CEF18F0960E0D6EE5EFC8
:102FBC0017F00D2AD890113210320F320E32000E4B
:102FCC000E14086E000E0F14096E000E10140A6E0B
:102FDC00FE0E11140B6E085009100A100B10D8A419
:102FEC00FAEF17F0FCEF17F0DFEF17F00AEF18F01D
:102FFC000D2A010E0E26000E0F2210221122D8903F
:10300C00113210320F320E32000E0E14086E000EFA
:10301C000F14096E000E10140A6EFF0E11140B6EB5
:10302C00085009100A100B10D8A41FEF18F021EF4C
:10303C0018F0FEEF17F029EF18F00D06D8900E36A9
:10304C000F361036113610BE2EEF18F030EF18F088
:10305C0038EF18F0020E0D6036EF18F038EF18F05C
:10306C0023EF18F00DB03DEF18F03FEF18F040EFE4
:10307C0018F0109ED8900D320DC008F0096A0A6A3B
:10308C000B6A08C00BF00A6A096A086A08500E122B
:10309C0009500F120A5010120B5011120C50D8B4C8
:1030AC005AEF18F05CEF18F064EF18F007BE63EFFE
:1030BC0018F061EF18F064EF18F0118E0EC004F0E8
:1030CC000FC005F010C006F011C007F0120024BEAE
:1030DC0072EF18F075EF18F0010E76EF18F0000E85
:1030EC002B6E2B50D8B47DEF18F07FEF18F083EFD8
:1030FC0018F0236C241ED8B0242A5ABE8AEF18F07C
:10310C0088EF18F090EF18F0000E286E010E276E65
:10311C0094EF18F059C027F05AC028F0DBC029F002
:10312C00DCC02AF02B50D8B49EEF18F0A0EF18F0AA
:10313C00B7EF18F02906D8A02A062B50D8A4A9EF6F
:10314C0018F0ABEF18F0B1EF18F0000E266E2B0E46
:10315C00256EB5EF18F0000E266E2D0E256E25C0CF
:10316C002BF0000E2D6E4F0E2C6E000E0101796FA0
:10317C00F0EF18F02C06D8A02D062A0E2C24D96EB0
:10318C00010E2D20DA6E23C004F024C005F0000ED1
:10319C00076E0A0E066E70EC1DF004C00AF005C036
:1031AC000BF0E5EC22F00A50300FDF6E2706D8A0AA
:1031BC0028062906D8A02A0623C004F024C005F04E
:1031CC00000E076E0A0E066E0EEC1DF004C023F006
:1031DC0005C024F02DBEFBEF18F02D5008E12C0497
:1031EC00D8A0FBEF18F0FDEF18F013EF19F02350F7
:1031FC002410D8A404EF19F006EF19F0C0EF18F062
:10320C0028BE13EF19F0285006E12704D8B011EFAF
:10321C0019F013EF19F0C0EF18F02B50D8B419EFC8
:10322C0019F01BEF19F026EF19F02C06D8A02D067B
:10323C002A0E2C24D96E010E2D20DA6E2BC0DFFF46
:10324C0021C016F022C017F02A0E2C24186E010E85
:10325C002D20196E29C01AF02AC01BF017EC20F093
:10326C0012006DC01FF06EC020F0560E216E000EC5
:10327C00226E16EC1FF0556E5550D8B448EF19F06D
:10328C004AEF19F04CEF19F0DDEF19F057AE51EF92
:10329C0019F053EF19F05BEF19F06FC0D9FF70C044
:1032AC00DAFF010EDF6E60EF19F06FC0D9FF70C04E
:1032BC00DAFFDF6A57AC65EF19F067EF19F072EFC0
:1032CC0019F0000120EE01F06F51D9267051DA226D
:1032DC00010EDF6E7AEF19F0000120EE01F06F5154
:1032EC00D9267051DA22DF6A57AA7FEF19F081EFE5
:1032FC0019F08BEF19F020EE02F06F51D9267051B6
:10330C00DA22010EDF6E92EF19F020EE02F06F510F
:10331C00D9267051DA22DF6A57A897EF19F099EF86
:10332C0019F0A1EF19F0000E5610566EE00E571062
:10333C00576EA7EF19F0FF0E5614566E1F0E57144A
:10334C00576E56C053F057C054F053C004F054C0DD
:10335C0005F0000E05BEFF0E066E076E010E93EC17
:10336C0017F004C04FF005C050F006C051F007C074
:10337C0052F04FC043F050C044F051C045F052C021
:10338C0046F0000E476E000E486E800E496E410EE0
:10339C004A6EF3EC11F071C0D9FF72C0DAFF43C072
:1033AC00DEFF44C0DEFF45C0DEFF46C0DEFF12007C
:1033BC0000016F357035546E5450D8A4E8EF19F0F5
:1033CC00EAEF19F0F4EF19F0000E6D6F000E6E6F4E
:1033DC00000E6F6F000E706F61EF1AF06DC04FF042
:1033EC006EC050F06FC051F070C052F0200E04EF60
:1033FC001AF0D8905232513250324F32E82EFFEF41
:10340C0019F04F50536E6F8FFF0E6D17FF0E6E1726
:10341C00FF0E6F17000E7017960E545E54BE1BEF06
:10342C001AF019EF1AF031EF1AF05450800A970F76
:10343C00D8B023EF1AF025EF1AF027EF1AF0EAEFC5
:10344C0019F0D89070336F336E336D33543E27EFD1
:10345C001AF049EF1AF01F0E546437EF1AF039EFD7
:10346C001AF041EF1AF0EAEF19F0D8906D376E3779
:10347C006F37703754065450D8A447EF1AF049EF01
:10348C001AF03BEF1AF05350D8B44FEF1AF051EF3B
:10349C001AF059EF1AF0701F6F1F6E1F6D6D000E32
:1034AC006E236F2370236DC06DF06EC06EF06FC015
:1034BC006FF070C070F01200000E3B14436E000EE3
:1034CC003C14446E800E3D14456E7F0E3E14466EC9
:1034DC004350441045104610D8A477EF1AF079EFFA
:1034EC001AF081EF1AF0000E3B6E000E3C6E000ECF
:1034FC003D6E000E3E6E000E3F14436E000E4014E7
:10350C00446E800E4114456E7F0E4214466E43503D
:10351C00441045104610D8A496EF1AF098EF1AF004
:10352C00A0EF1AF0000E3F6E000E406E000E416EC2
:10353C00000E426E3EAEA5EF1AF0A7EF1AF0B0EFF8
:10354C001AF03B6C3C1ED8B03C2A3D1ED8B03D2A2C
:10355C00800E3E5642AEB5EF1AF0B7EF1AF0C0EF40
:10356C001AF03F6C401ED8B0402A411ED8B0412AF8
:10357C00800E4256000E3B1A000E3C1A000E3D1AED
:10358C00800E3E1A000E3F1A000E401A000E411A11
:10359C00800E421A3F503B5C40503C5841503D58C5
:1035AC0042503E58D8B0DDEF1AF0DFEF1AF0E2EFE0
:1035BC001AF0D890E3EF1AF0D8801200D7C00EF0B2
:1035CC00D8C00FF0D9C010F0DAC011F004C00EF062
:1035DC0005C00FF006C010F007C011F00EC008F0C7
:1035EC000FC009F010C00AF011C00BF0180E04EF58
:1035FC001BF0D8900B320A3209320832E82EFFEF5A
:10360C001AF008500C6E0D6A0C500D10D8A411EF66
:10361C001BF013EF1BF033EF1BF0D8900E34086E39
:10362C000F34096E10340A6E11340B6E08500910E9
:10363C000A100B10D8A425EF1BF027EF1BF02DEF71
:10364C001BF0000E056E020E046E62EF1BF0000EF6
:10365C00056E030E046E62EF1BF00C280D10D8A43F
:10366C003AEF1BF03CEF1BF05EEF1BF00EC008F0C6
:10367C000FC009F010C00AF011C00BF0090ED89061
:10368C00083609360A360B36E82E45EF1BF0085083
:10369C0009100A100B10D8B456EF1BF059EF1BF0A1
:1036AC00010E5AEF1BF0000E046E056A62EF1BF060
:1036BC00000E056E040E046E120027C004F028C024
:1036CC0005F029C006F02AC007F0000E086E000EA7
:1036DC00096E000E0A6E3F0E0B6EC8EC1DF0D8A0E2
:1036EC007AEF1BF07CEF1BF080EF1BF0000E2B6EC3
:1036FC00D5EF1BF027C004F028C005F029C006F058
:10370C002AC007F0000E086E000E096E800E0A6EBD
:10371C003E0E0B6EC8EC1DF0D8A097EF1BF099EF86
:10372C001BF09DEF1BF0010E2B6ED5EF1BF027C08D
:10373C0004F028C005F029C006F02AC007F0000EDE
:10374C00086E000E096E000E0A6E3E0E0B6EC8EC73
:10375C001DF0D8A0B4EF1BF0B6EF1BF0BAEF1BF0C6
:10376C00020E2B6ED5EF1BF027C004F028C005F01D
:10377C0029C006F02AC007F0000E086E000E096E74
:10378C00800E0A6E3D0E0B6EC8EC1DF0D8A0D1EF6A
:10379C001BF0D3EF1BF0DDEF1BF0030E2B6E25C0DF
:1037AC001FF026C020F02BC021F041EC23F01200BA
:1037BC00D60E0001C36F100EC46FE4EC24F0020EA1
:1037CC000001CC6F860ECB6F990EE82EFED7CB2F57
:1037DC00FCD7CC2FFAD7B00E0001C36F100EC46FFC
:1037EC00E4EC24F0020E0001CC6F860ECB6F990E28
:1037FC00E82EFED7CB2FFCD7CC2FFAD7BC0E00016E
:10380C00C36F100EC46FE4EC24F0020E0001CC6FF9
:10381C00860ECB6F990EE82EFED7CB2FFCD7CC2F74
:10382C00FAD7C90E0001C36F100EC46FE4EC24F07C
:10383C00020E0001CC6F860ECB6F990EE82EFED7D0
:10384C00CB2FFCD7CC2FFAD7D60E0001C36F100E9E
:10385C00C46FE4EC24F0020E0001CC6F860ECB6F2B
:10386C00990EE82EFED7CB2FFCD7CC2FFAD7C30E50
:10387C000001C36F100EC46FE4EC24F0120008506A
:10388C000910D8B44CEF1CF04EEF1CF057EF1CF0A5
:10389C0008500910D8A455EF1CF057EF1CF05CEF42
:1038AC001CF006506AEC26F0A9EF1CF020EE0AF092
:1038BC000850D9260950DA22DE50DE10D8B469EF50
:1038CC001CF06BEF1CF086EF1CF020EE0AF0085099
:1038DC00D9260950DA2210EE03F00850E1260950DF
:1038EC00E222DE50E65CE650800A0E6EDE50800A64
:1038FC000E58D8B084EF1CF086EF1CF0A9EF1CF02A
:10390C0020EE03F00850D9260950DA22DECF0AF057
:10391C00DDCF0BF008C0D9FF09C0DAFFDECF0CF009
:10392C00DDCF0DF00A500C24D96E0B500D20DA6E41
:10393C0006C0DFFF20EE03F00850D9260950DA222A
:10394C00DE2A000EDD22120012EC26F00009D8B49B
:10395C00B2EF1CF0B4EF1CF0F1EF1CF0C2EF1CF056
:10396C0097EC26F00DEF1DF093EC26F00DEF1DF00B
:10397C008BEC26F00DEF1DF018C10FF019C110F0F3
:10398C0021EE09F002D8D5EF1CF00500FA6EDE50DE
:10399C00FD6EDE50FE6EDE50FF6EFA501200116EA0
:1039AC00126A1250000AD8B4DEEF1CF0BEEF1CF005
:1039BC001150010AD8B4BEEF1CF0030AD8B4B6EF0C
:1039CC001CF0010AD8B4BAEF1CF0070AD8B4BEEF49
:1039DC001CF0BEEF1CF00101299123C1D9FF24C1B9
:1039EC00DAFF234B242BDF509BEC26F0010125073B
:1039FC00D8A0260725512611D8A407EF1DF009EFF2
:103A0C001DF00CEF1DF0060E0DEF1DF0030E120055
:103A1C00000E096E07BE17EF1DF015EF1DF01DEF20
:103A2C001DF0066C071ED8B0072A010E096E05BEE4
:103A3C0024EF1DF022EF1DF02AEF1DF0046C051E83
:103A4C00D8B0052A010E091A000E0B6E000E0A6E74
:103A5C0006500710D8B435EF1DF037EF1DF05FEFAF
:103A6C001DF0010E086E3FEF1DF0D890063607369C
:103A7C00082A07AE44EF1DF046EF1DF03BEF1DF09A
:103A8C00D8900A360B360650045C07500558D8A05F
:103A9C0052EF1DF054EF1DF059EF1DF00650045E6F
:103AAC000750055A0A80D89007320632082E46EF86
:103ABC001DF00950D8B465EF1DF067EF1DF06BEFEA
:103ACC001DF00A6C0B1ED8B00B2A0AC004F00BC0F8
:103ADC0005F01200000E096E05BE79EF1DF077EFB0
:103AEC001DF07FEF1DF0046C051ED8B0052A010EE9
:103AFC00096E07BE86EF1DF084EF1DF08AEF1DF0F6
:103B0C00066C071ED8B0072A06500710D8B491EFE0
:103B1C001DF093EF1DF0B7EF1DF0010E086E9BEF3B
:103B2C001DF0D89006360736082A07AEA0EF1DF018
:103B3C00A2EF1DF097EF1DF00650045C07500558DE
:103B4C00D8A0ABEF1DF0ADEF1DF0B1EF1DF006509E
:103B5C00045E0750055AD89007320632082EA2EFA1
:103B6C001DF00950D8B4BDEF1DF0BFEF1DF0C3EF31
:103B7C001DF0046C051ED8B0052A04C004F005C065
:103B8C0005F01200000E04140C6E000E05140D6EE0
:103B9C00800E06140E6E7F0E07140F6E0C500D1057
:103BAC000E100F10D8A4DDEF1DF0DFEF1DF0E7EFC6
:103BBC001DF0000E046E000E056E000E066E000E5B
:103BCC00076E000E08140C6E000E09140D6E800E9C
:103BDC000A140E6E7F0E0B140F6E0C500D100E107F
:103BEC000F10D8A4FCEF1DF0FEEF1DF006EF1EF039
:103BFC00000E086E000E096E000E0A6E000E0B6EA3
:103C0C00085004180FE1095005180CE10A50061869
:103C1C0009E10B500718D8B416EF1EF018EF1EF080
:103C2C001BEF1EF0D8901CEF1EF0D8801200000E77
:103C3C00866E000E856E000E826E000E836E000E78
:103C4C00846E040E8B6E8768FE0E886EEF0E896E86
:103C5C008A680F0121691C69D10E146F070E296F38
:103C6C000C69000E206F000E286F000E136F000EF3
:103C7C000B6F000E1B6F000E276F000E0A6F000EED
:103C8C00126F000E1A6F000E1F6F09691169196906
:103C9C001E69070E266F0869106918691D690F0ED9
:103CAC00256F0D9B0E8B0F9B180E046E4A0E056E26
:103CBC00000E066E3CEC26F00E01BD89090EB26FAB
:103CCC000F0EEB6F0B0EEA6F100EEC6F0B0E886F76
:103CDC000A0EB36F1200B2EC26F023C1D9FF24C137
:103CEC00DAFFDF6E0101234B242B2507D8A0260712
:103CFC0025512611D8B485EF1EF087EF1EF08CEFFE
:103D0C001EF0A2EC26F0050EC4EF1EF0298797EFEB
:103D1C001EF07FEC26F0C4EF1EF083EC26F0C4EF0F
:103D2C001EF012C10FF013C110F002D8A8EF1EF054
:103D3C000500FA6E0051FD6E0151FE6E0251FF6ED0
:103D4C00FA501200116E126A1250000AD8B4B1EF78
:103D5C001EF093EF1EF01150010AD8B493EF1EF031
:103D6C00030AD8B48FEF1EF0010AD8B48FEF1EF0FF
:103D7C00070AD8B493EF1EF093EF1EF01200046EF6
:103D8C00010E056E010129B5CEEF1EF0D0EF1EF02D
:103D9C0014EF1FF004C022F12993298529910E0EEE
:103DAC00276F010E216FF40E206F2987700E006FA4
:103DBC004D0E016F000E026F000E126F000E136F8E
:103DCC00700E036F4D0E046F000E056F000E146F16
:103DDC00000E156F700E066F4D0E076F000E086FFC
:103DEC00000E166F000E176F700E096F4D0E0A6FD6
:103DFC00000E0B6F000E186F000E196F6C0E0C6F0F
:103E0C004D0E0D6F000E0E6F000E1A6F000E1B6F15
:103E1C00ABEC26F056EC25F0000E056E05501200AA
:103E2C00050E276E1FC01AF020C01BF0270E1C6E4B
:103E3C00000E1D6E010E1E6EF1EC25F0286E285042
:103E4C00D8B42BEF1FF02DEF1FF030EF1FF02850E0
:103E5C005AEF1FF01FC01AF020C01BF0250E1C6E6D
:103E6C00000E1D6E020E1E6ECDEC25F0286E285035
:103E7C00D8B443EF1FF045EF1FF047EF1FF02DEFC5
:103E8C001FF0265025C023F0246A23C024F0236A97
:103E9C002312000E241221C0D9FF22C0DAFF23C046
:103EAC00DEFF24C0DDFF000E1200096E0450051069
:103EBC000610D8B464EF1FF066EF1FF082EF1FF00E
:103ECC000950030D000EF324D96E010EF420DA6EA6
:103EDC0004C0DEFF05C0DEFF06C0DEFF0950020D88
:103EEC00120EF324D96E010EF420DA6E07C0DEFF39
:103EFC0008C0DDFF9AEF1FF00950030D000EF324EC
:103F0C00D96E010EF420DA6E700EDE6E4D0EDE6E82
:103F1C00000EDE6E0950020D120EF324D96E010E46
:103F2C00F420DA6EDE6ADD6A120001012987ACEF3B
:103F3C001FF08FEC26F0D9EF1FF09FEC26F0030E4C
:103F4C00D9EF1FF08BEC26F0D9EF1FF012C10FF058
:103F5C0013C110F002D8BDEF1FF00500FA6E00512E
:103F6C00FD6E0151FE6E0251FF6EFA501200116E81
:103F7C00126A1250000AD8B4C6EF1FF0A8EF1FF057
:103F8C001150010AD8B4A8EF1FF0030AD8B49FEF60
:103F9C001FF0010AD8B49FEF1FF0070AD8B4A3EFA3
:103FAC001FF0A8EF1FF01200010E216E1FC01AF0B7
:103FBC0020C01BF0210E1C6E000E1D6E010E1E6E1D
:103FCC00F1EC25F0246E2450D8B4EFEF1FF0F1EF94
:103FDC001FF0F3EF1FF016EF20F01FC01AF020C0F7
:103FEC001BF0220E1C6E000E1D6E020E1E6ECDEC12
:103FFC0025F0246E2450D8B406EF20F008EF20F002
:10400C000AEF20F016EF20F01FC01AF020C01BF0B2
:10401C00210E1C6E000E1D6E030E1E6EF1EC25F0B3
:10402C0012001BBE1CEF20F01EEF20F024EF20F03E
:10403C001AC01FF01BC020F028EF20F0000E206EDD
:10404C00000E1F6E000E1E6E000E1D6E3AEF20F05D
:10405C00000E076E200E066E16C008F017C009F091
:10406C0045EC1CF01D4A1E2A1F501D5C1E50800A78
:10407C001C6E2050800A1C58D8A047EF20F049EF46
:10408C0020F02EEF20F018C00FF019C010F016C061
:10409C0011F017C012F05DEC22F01200ABEC26F020
:1040AC00010129A15CEF20F05EEF20F06BEF20F016
:1040BC0012EC26F00009D8B466EF20F068EF20F07F
:1040CC006BEF20F00F0E0101276F01012751030D3B
:1040DC00010EF324F66E100EF420F76EF86A000E43
:1040EC00F82202D887EF20F00500FA6E0900F5508F
:1040FC00FD6E0900F550FE6E0900F550FF6EFA508A
:10410C0012000101276F120001012991020E286F84
:10411C0098EF20F08FEC26F0BFEF20F08BEC26F020
:10412C00BFEF20F016C10FF017C110F021EE06F012
:10413C0002D8ABEF20F00500FA6EDE50FD6EDE50BB
:10414C00FE6EDE50FF6EFA501200116E126A1250A3
:10415C00000AD8B4B4EF20F094EF20F01150020A0A
:10416C00D8B490EF20F0010AD8B490EF20F094EF7F
:10417C0020F0120007BECFEF20F0075006100510FC
:10418C0006E10404D8B0CDEF20F0CFEF20F0EAEF39
:10419C0020F004C008F005C009F006C00AF007C002
:1041AC000BF0081E091E0A1E0B1E082A000E0922FF
:1041BC000A220B2208C004F009C005F00AC006F060
:1041CC000BC007F0F2EF20F004C004F005C005F0BE
:1041DC0006C006F007C007F0120005EC23F0AEECA9
:1041EC0026F0000E01017A6F000E7B6F000E7C6FC3
:1041FC003E0E7D6F180E0001E56F010EE66FE5C0F7
:10420C0025F0E6C026F07AC127F07BC128F07CC1EE
:10421C0029F07DC12AF063EC1BF0F28EF28C95EC48
:10422C0025F0DEEC1BF087EC25F0E5C0CBF0E6C00A
:10423C00CCF02FEC15F01BEF21F032EF00F0196EE3
:10424C001950C5EC1EF00009D8B42FEF21F031EF56
:10425C0021F026EF21F015C004F016C005F017C0B0
:10426C0006F018C007F044EC25F0000E0A6E000EA4
:10427C000B6E000E0C6E000E0D6E000E0E6EB1EC81
:10428C0025F07BEC26F0A5EC24F0E806D8B451EF31
:10429C0021F053EF21F049EF21F01200BDC0C1F025
:1042AC00BEC0C2F069EF21F0BBC0AEF0BCC0AFF035
:1042BC00C10E0001B06F000EB16FBFC0B2F0C0C034
:1042CC00B3F0C1EC13F0C1C0F6FFC2C0F7FF000E93
:1042DC00F86E0800F5500009D8A477EF21F079EFBB
:1042EC0021F05AEF21F0000E0001BC6F000EBB6FE5
:1042FC00120006C00DF007C00EF004C00BF005C094
:10430C000CF099EF21F00DC0D9FF0EC0DAFFDF5091
:10431C000A6E0D4A0E2A0BC0D9FF0CC0DAFF0AC078
:10432C00DFFF0B4A0C2A0806D8A00906082806E16C
:10433C000928D8A4A4EF21F0A6EF21F089EF21F0F1
:10434C001200000E656E000E666E000E676E000E9B
:10435C00686E000E636E000E646E000E616E000ED1
:10436C000F015A6F000E586F000E596F000E546FEC
:10437C00000E556F000E566F000E606E000E536FE0
:10438C00000E516F060E526F940E5B6F000E576F3E
:10439C001200080E0E019A6F900E986F240E996FF2
:1043AC00190E966F000E976F000E046E000E056EC0
:1043BC00000E066E4AEC26F0000E046E000E056E22
:1043CC00000E066E43EC26F0000E046E000E056E19
:1043DC00000E066E51EC26F0000E5B6E1200196E8C
:1043EC001950C5EC1EF00009D8B4FFEF21F001EF15
:1043FC0022F0F6EF21F015C004F016C005F017C03E
:10440C0006F018C007F044EC25F06FEC26F0A5EC94
:10441C0024F0E806D8B415EF22F017EF22F00DEFD8
:10442C0022F01200000E3F1A000E401A000E411A24
:10443C00800E421A3BC012F03CC013F03DC014F089
:10444C003EC015F03FC016F040C017F041C018F048
:10445C0042C019F07EEC0DF012C03BF013C03CF0E2
:10446C0014C03DF015C03EF0120006C008F007C0A5
:10447C0009F004C00AF005C00BF008C0F6FF09C033
:10448C00F7FF084A092A000EF86E0AC0D9FF0BC0C4
:10449C00DAFF0A4A0B2A0800F5CFDFFFDF50D8A459
:1044AC005AEF22F05CEF22F043EF22F01200000EE4
:1044BC00156E000E146E6EEF22F013C006F0076A34
:1044CC0011C008F012C009F045EC1CF0144A152A72
:1044DC0014500F24D96E15501020DA6EDF50136E65
:1044EC001350D8A47CEF22F07EEF22F063EF22F081
:1044FC001200136E010E146E010129B388EF22F025
:10450C008AEF22F09FEF22F02983000E146E1350D5
:10451C00D8B493EF22F095EF22F099EF22F0010E30
:10452C00276F9BEF22F0020E276FBEEC26F078EC83
:10453C0025F01450120020EE02F00F50D926105026
:10454C00DA22DECF04F0DDCF05F00FC0D9FF10C0AA
:10455C00DAFFDECF06F0DDCF07F044EC25F0000EDD
:10456C000A6E000E0B6E000E0C6E000E0D6E000E21
:10457C000E6EBFEC25F0020E120020EE02F00F5072
:10458C00D9261050DA22DECF04F0DDCF05F00FC0B3
:10459C00D9FF10C0DAFFDECF06F0DDCF07F044EC18
:1045AC0025F0000E0A6E000E0B6E000E0C6E000E47
:1045BC000D6E000E0E6EBFEC25F0020E12000BBE3F
:1045CC00F2EF22F00B5006E10A04D8B0F0EF22F023
:1045DC00F2EF22F000EF23F00AC00CF00BC00DF04C
:1045EC000C1E0D1E0C4A0D2A0CC00AF00DC00BF04F
:1045FC0004EF23F00AC00AF00BC00BF01200B0EC71
:10460C0026F0A3EC25F008EC26F01DEC1EF0E5ECF2
:10461C0025F077EC26F0A7EC21F0F8EC24F0CFECA9
:10462C0021F0180E0001E56F010EE66FE5C027F0D2
:10463C00E6C028F023EC23F0120027C01FF028C09E
:10464C0020F0000E216E41EC23F0296E2950D8B4D5
:10465C0032EF23F034EF23F036EF23F040EF23F06A
:10466C0027C01FF028C020F0010E226E000E216E14
:10467C00BBEC24F01200030E216447EF23F049EF4A
:10468C0023F04CEF23F09C0E5EEF23F0080E236E0C
:10469C0021C024F01FC01AF020C01BF0230E1C6E8A
:1046AC00000E1D6E020E1E6EF1EC25F0226E2250D5
:1046BC001200010E226E23500109236E1FC01AF046
:1046CC0020C01BF0220E1C6E000E1D6E030E1E6E03
:1046DC00F1EC25F08682270E216EF50EE82EFED722
:1046EC00212EFCD700F00300120004500510061018
:1046FC000710D8B484EF23F086EF23F08EEF23F06D
:10470C00000E041A000E051A000E061A800E071A67
:10471C0004C004F005C005F006C006F007C007F0A1
:10472C0012000E01C59B0001EF51F011F111D8B42C
:10473C00A2EF23F0A4EF23F0B1EF23F002D8B1EFF6
:10474C0023F00500FA6EEF51FD6EF051FE6EF15143
:10475C00FF6EFA50120012000001FB51FC11FD110A
:10476C00D8B4BBEF23F0BDEF23F0CAEF23F002D88F
:10477C00CAEF23F00500FA6EFB51FD6EFC51FE6E84
:10478C00FD51FF6EFA5012000F010D9B1200086EC6
:10479C0008C05AFF0F015B8F5B9D5B815BB1D9EF4A
:1047AC0023F0DBEF23F0D4EF23F05F51076E066AA2
:1047BC005E510624046E000E0720056E12000FC019
:1047CC0004F010C005F0000E076E010E066E44ECEE
:1047DC0025F0000E0A6E000E0B6E000E0C6E000E15
:1047EC000D6E000E0E6EBFEC25F0040E12000FC005
:1047FC0004F010C005F0000E076E020E066E44ECBD
:10480C0025F0000E0A6E000E0B6E000E0C6E000EE4
:10481C000D6E000E0E6EBFEC25F0020E12000FC0D6
:10482C0004F010C005F0000E076E010E066E44EC8D
:10483C0025F0000E0A6E000E0B6E000E0C6E000EB4
:10484C000D6E000E0E6EBFEC25F0020E12000FC0A6
:10485C0004F010C005F0000E076E020E066E44EC5C
:10486C0025F0000E0A6E000E0B6E000E0C6E000E84
:10487C000D6E000E0E6EBFEC25F0040E12000FC074
:10488C0004F010C005F0000E076E020E066E44EC2C
:10489C0025F0000E0A6E000E0B6E000E0C6E000E54
:1048AC000D6E000E0E6EBFEC25F0020E12000FC046
:1048BC0004F010C005F0000E076E010E066E44ECFD
:1048CC0025F0000E0A6E000E0B6E000E0C6E000E24
:1048DC000D6E000E0E6EBFEC25F0020E12000FC016
:1048EC0004F010C005F0000E076E010E066E44ECCD
:1048FC0025F0000E0A6E000E0B6E000E0C6E000EF4
:10490C000D6E000E0E6EBFEC25F0040E12000FC0E3
:10491C0004F010C005F0000E076E020E066E44EC9B
:10492C0025F0000E0A6E000E0B6E000E0C6E000EC3
:10493C000D6E000E0E6EBFEC25F0040E1200010E73
:10494C00046E010129B3ADEF24F0AFEF24F0B9EF01
:10495C0024F029952269ABEC26F0A8EC26F0C0ECEB
:10496C0026F028C104F004501200010E236E2250D0
:10497C00246E21C025F01FC01AF020C01BF0230E9E
:10498C001C6E000E1D6E030E1E6EF1EC25F0266ED5
:10499C002650120001EE00F07A0EEE6AE806FDE1F8
:1049AC0000EED3F01C0EEE6AE806FDE15B6A5A6A73
:1049BC00596A5C905C920001F3EF20F0C50E000187
:1049CC00C96F000ECA6F000EBB6F000EBC6FC3C068
:1049DC00BDF0C4C0BEF0C90EBF6F000EC06F54EC6A
:1049EC0021F01200970ED56E960ED36E000ED26E7D
:1049FC000E01C59BBD8BCE0E046E4A0E056E000ECD
:104A0C00066E35EC26F08F0ED46E120086B011EFC8
:104A1C0025F014EF25F0010E15EF25F0000EFF0A1E
:104A2C00016E86500118FE0B0118866E0001E34BD7
:104A3C00E42B1200010E216E22500109226E1FC0C0
:104A4C001AF020C01BF0210E1C6E000E1D6E030E02
:104A5C001E6EF1EC25F01200010E216E2250FE0BA1
:104A6C00226E1FC01AF020C01BF0210E1C6E000E0F
:104A7C001D6E030E1E6EF1EC25F01200010129A72C
:104A8C004AEF25F04CEF25F055EF25F004C023F14B
:104A9C0005C024F106C025F107C026F129971200A4
:104AAC0095BA5BEF25F05DEF25F066EF25F0000E73
:104ABC00946E080E956E000E966E1D0E926E958A73
:104ACC00120086B06CEF25F06FEF25F0010E70EF41
:104ADC0025F0000EFF0A016E86500118FE0B01181E
:104AEC00866E12007EEF25F01CEC26F054EC20F0C4
:104AFC00010129B384EF25F086EF25F07AEF25F03C
:104B0C0012008488020E056E860E046E990EE82E35
:104B1C00FED7042EFCD7052EFAD700F0120084988D
:104B2C00020E056E860E046E990EE82EFED7042E2C
:104B3C00FCD7052EFAD700F01200000E0E01DC6F28
:104B4C00000EDD6F000EDE6F000EDF6F000EE06FEB
:104B5C00000EE16F12000AC004F00BC005F00CC08F
:104B6C0006F00DC007F00EC008F0020E5BEC1FF053
:104B7C0012000AC004F00BC005F00CC006F00DC00A
:104B8C0007F00EC008F0000E5BEC1FF012001CC00A
:104B9C0015F01DC016F01EC017F0186A1A50F5EC6F
:104BAC0021F0000E1200046E0E01C8ADE0EF25F0EE
:104BBC00E2EF25F0DAEF25F004C095FE1200620E4C
:104BCC000E01D36F000ED56F000ED76F070ED96F85
:104BDC00000ED86F12001CC015F01DC016F01EC0C0
:104BEC0017F0186A1A5025EC21F0000E12000F0174
:104BFC000DAB03EF26F005EF26F007EF26F0B2EC35
:104C0C0023F01200000E946E080E956E000E966E38
:104C1C001D0E926E959A120096BC17EF26F01AEFA5
:104C2C0026F0010E1BEF26F0000E12000E01C8A19B
:104C3C0022EF26F024EF26F01CEF26F012000101E3
:104C4C002981225122259BEC26F0030E1200010132
:104C5C002981D88022359BEC26F0050E120004C069
:104C6C00EFF005C0F0F006C0F1F0120004C0FBF04C
:104C7C0005C0FCF006C0FDF0120004C0F5F005C044
:104C8C00F6F006C0F7F0120004C0F8F005C0F9F019
:104C9C0006C0FAF0120004C0F2F005C0F3F006C032
:104CAC00F4F0120001012993000E286F0E0E120071
:104CBC0001012991B4EC26F0040E12000101299394
:104CCC00000E286F0E0E1200056E0550D9EC25F063
:104CDC001200010E7FEC22F012003C0E0F015A6FF5
:104CEC001200A00E0F012C6F1200000E7FEC22F0B0
:104CFC001200A5EC26F0090E1200A5EC26F00A0E07
:104D0C001200A2EC26F0050E1200BAEC26F0000EF2
:104D1C001200BCEC26F0010E1200BCEC26F0020EC8
:104D2C001200BCEC26F0010E1200046E04C091FFC0
:104D3C0012000E01C8811200969A96881200968A6B
:104D4C00968812000E01C09112000E01C89112003B
:104D5C00D48E1200F29A1200915012009686120014
:104D6C00050E1200010E120096841200968212009B
:084D7C0096801200959A1200C6
:020000040020DA
:10000000FFFFFFFFFFFFFFFFFFFFFFFFFFFFFFFF00
:10001000FFFFFFFFFFFFFFFFFFFFFFFFFFFFFFFFF0
:10002000FFFFFFFFFFFFFFFFFFFFFFFFFFFFFFFFE0
:10003000FFFFFFFFFFFFFFFFFFFFFFFFFFFFFFFFD0
:10004000FFFFFFFFFFFFFFFFFFFFFFFFFFFFFFFFC0
:10005000FFFFFFFFFFFFFFFFFFFFFFFFFFFFFFFFB0
:10006000FFFFFFFFFFFFFFFFFFFFFFFFFFFFFFFFA0
:10007000FFFFFFFFFFFFFFFFFFFFFFFFFFFFFFFF90
:10008000FFFFFFFFFFFFFFFFFFFFFFFFFFFFFFFF80
:10009000FFFFFFFFFFFFFFFFFFFFFFFFFFFFFFFF70
:1000A000FFFFFFFFFFFFFFFFFFFFFFFFFFFFFFFF60
:1000B000FFFFFFFFFFFFFFFFFFFFFFFFFFFFFFFF50
:1000C000FFFFFFFFFFFFFFFFFFFFFFFFFFFFFFFF40
:1000D000FFFFFFFFFFFFFFFFFFFFFFFFFFFFFFFF30
:1000E000FFFFFFFFFFFFFFFFFFFFFFFFFFFFFFFF20
:1000F000FFFFFFFFFFFFFFFFFFFFFFFFFFFFFFFF10
:020000040030CA
:0C000000ECFF3FFF9FFFFFFFFFFFFFFF33
:00000001FF
